{
  "contractName": "IVACT",
  "abi": [
    {
      "inputs": [],
      "payable": false,
      "stateMutability": "nonpayable",
      "type": "constructor"
    },
    {
      "constant": true,
      "inputs": [
        {
          "internalType": "uint256",
          "name": "",
          "type": "uint256"
        }
      ],
      "name": "CH",
      "outputs": [
        {
          "internalType": "address",
          "name": "addr",
          "type": "address"
        },
        {
          "internalType": "uint256",
          "name": "id",
          "type": "uint256"
        },
        {
          "internalType": "string",
          "name": "name",
          "type": "string"
        }
      ],
      "payable": false,
      "stateMutability": "view",
      "type": "function"
    },
    {
      "constant": true,
      "inputs": [
        {
          "internalType": "uint256",
          "name": "",
          "type": "uint256"
        }
      ],
      "name": "CI",
      "outputs": [
        {
          "internalType": "address",
          "name": "addr",
          "type": "address"
        },
        {
          "internalType": "uint256",
          "name": "id",
          "type": "uint256"
        },
        {
          "internalType": "string",
          "name": "name",
          "type": "string"
        }
      ],
      "payable": false,
      "stateMutability": "view",
      "type": "function"
    },
    {
      "constant": true,
      "inputs": [
        {
          "internalType": "uint256",
          "name": "",
          "type": "uint256"
        }
      ],
      "name": "CV",
      "outputs": [
        {
          "internalType": "address",
          "name": "addr",
          "type": "address"
        },
        {
          "internalType": "uint256",
          "name": "id",
          "type": "uint256"
        },
        {
          "internalType": "string",
          "name": "name",
          "type": "string"
        }
      ],
      "payable": false,
      "stateMutability": "view",
      "type": "function"
    },
    {
      "constant": true,
      "inputs": [],
      "name": "ContractCtr",
      "outputs": [
        {
          "internalType": "uint256",
          "name": "",
          "type": "uint256"
        }
      ],
      "payable": false,
      "stateMutability": "view",
      "type": "function"
    },
    {
      "constant": true,
      "inputs": [
        {
          "internalType": "uint256",
          "name": "",
          "type": "uint256"
        }
      ],
      "name": "ContrctStock",
      "outputs": [
        {
          "internalType": "uint256",
          "name": "id",
          "type": "uint256"
        },
        {
          "internalType": "string",
          "name": "description",
          "type": "string"
        },
        {
          "internalType": "bool",
          "name": "is_issured",
          "type": "bool"
        },
        {
          "internalType": "bool",
          "name": "is_verfied",
          "type": "bool"
        },
        {
          "internalType": "address",
          "name": "holder_addr",
          "type": "address"
        }
      ],
      "payable": false,
      "stateMutability": "view",
      "type": "function"
    },
    {
      "constant": true,
      "inputs": [],
      "name": "HolderCtr",
      "outputs": [
        {
          "internalType": "uint256",
          "name": "",
          "type": "uint256"
        }
      ],
      "payable": false,
      "stateMutability": "view",
      "type": "function"
    },
    {
      "constant": true,
      "inputs": [],
      "name": "IssuerCtr",
      "outputs": [
        {
          "internalType": "uint256",
          "name": "",
          "type": "uint256"
        }
      ],
      "payable": false,
      "stateMutability": "view",
      "type": "function"
    },
    {
      "constant": true,
      "inputs": [],
      "name": "Owner",
      "outputs": [
        {
          "internalType": "address",
          "name": "",
          "type": "address"
        }
      ],
      "payable": false,
      "stateMutability": "view",
      "type": "function"
    },
    {
      "constant": true,
      "inputs": [],
      "name": "VerifierCtr",
      "outputs": [
        {
          "internalType": "uint256",
          "name": "",
          "type": "uint256"
        }
      ],
      "payable": false,
      "stateMutability": "view",
      "type": "function"
    },
    {
      "constant": false,
      "inputs": [
        {
          "internalType": "address",
          "name": "_address",
          "type": "address"
        },
        {
          "internalType": "string",
          "name": "_name",
          "type": "string"
        }
      ],
      "name": "issuer",
      "outputs": [],
      "payable": false,
      "stateMutability": "nonpayable",
      "type": "function"
    },
    {
      "constant": false,
      "inputs": [
        {
          "internalType": "address",
          "name": "_address",
          "type": "address"
        },
        {
          "internalType": "string",
          "name": "_name",
          "type": "string"
        }
      ],
      "name": "holder",
      "outputs": [],
      "payable": false,
      "stateMutability": "nonpayable",
      "type": "function"
    },
    {
      "constant": false,
      "inputs": [
        {
          "internalType": "address",
          "name": "_address",
          "type": "address"
        },
        {
          "internalType": "string",
          "name": "_name",
          "type": "string"
        }
      ],
      "name": "verifier",
      "outputs": [],
      "payable": false,
      "stateMutability": "nonpayable",
      "type": "function"
    },
    {
      "constant": false,
      "inputs": [
        {
          "internalType": "address",
          "name": "holderAddress",
          "type": "address"
        },
        {
          "internalType": "uint256",
          "name": "_contractID",
          "type": "uint256"
        }
      ],
      "name": "contractVerify",
      "outputs": [
        {
          "components": [
            {
              "internalType": "uint256",
              "name": "id",
              "type": "uint256"
            },
            {
              "internalType": "string",
              "name": "description",
              "type": "string"
            },
            {
              "internalType": "bool",
              "name": "is_issured",
              "type": "bool"
            },
            {
              "internalType": "bool",
              "name": "is_verfied",
              "type": "bool"
            },
            {
              "internalType": "address",
              "name": "holder_addr",
              "type": "address"
            }
          ],
          "internalType": "struct IVACT.Contrct",
          "name": "",
          "type": "tuple"
        }
      ],
      "payable": false,
      "stateMutability": "nonpayable",
      "type": "function"
    },
    {
      "constant": false,
      "inputs": [
        {
          "internalType": "address",
          "name": "_address",
          "type": "address"
        },
        {
          "internalType": "string",
          "name": "_description",
          "type": "string"
        }
      ],
      "name": "addContrct",
      "outputs": [],
      "payable": false,
      "stateMutability": "nonpayable",
      "type": "function"
    }
  ],
  "bytecode": "0x6080604052600060015560006002556000600355600060045534801561002457600080fd5b50336000806101000a81548173ffffffffffffffffffffffffffffffffffffffff021916908373ffffffffffffffffffffffffffffffffffffffff160217905550611615806100746000396000f3fe608060405234801561001057600080fd5b50600436106100ea5760003560e01c8063b4a99a4e1161008c578063be365df311610066578063be365df314610267578063bfa9688e14610283578063ded08b0e146102a1578063fab1407b146102bd576100ea565b8063b4a99a4e146101f7578063b7bf834014610215578063bdc7ab6414610233576100ea565b80637f03ef68116100c85780637f03ef6814610171578063870e4d22146101a1578063a0e111c1146101bd578063adb7af65146101db576100ea565b806304700ac1146100ef5780636f38ccd31461010d578063732c25db1461013f575b600080fd5b6100f76102ef565b604051610104919061140e565b60405180910390f35b61012760048036036101229190810190611228565b6102f5565b604051610136939291906113ae565b60405180910390f35b61015960048036036101549190810190611228565b6103d7565b604051610168939291906113ae565b60405180910390f35b61018b600480360361018691908101906111ec565b6104b9565b60405161019891906113ec565b60405180910390f35b6101bb60048036036101b69190810190611198565b6106ea565b005b6101c5610812565b6040516101d2919061140e565b60405180910390f35b6101f560048036036101f09190810190611198565b610818565b005b6101ff610a0c565b60405161020c9190611393565b60405180910390f35b61021d610a31565b60405161022a919061140e565b60405180910390f35b61024d60048036036102489190810190611228565b610a37565b60405161025e959493929190611429565b60405180910390f35b610281600480360361027c9190810190611198565b610b3f565b005b61028b610c67565b604051610298919061140e565b60405180910390f35b6102bb60048036036102b69190810190611198565b610c6d565b005b6102d760048036036102d29190810190611228565b610d95565b6040516102e6939291906113ae565b60405180910390f35b60035481565b60076020528060005260406000206000915090508060000160009054906101000a900473ffffffffffffffffffffffffffffffffffffffff1690806001015490806002018054600181600116156101000203166002900480601f0160208091040260200160405190810160405280929190818152602001828054600181600116156101000203166002900480156103cd5780601f106103a2576101008083540402835291602001916103cd565b820191906000526020600020905b8154815290600101906020018083116103b057829003601f168201915b5050505050905083565b60066020528060005260406000206000915090508060000160009054906101000a900473ffffffffffffffffffffffffffffffffffffffff1690806001015490806002018054600181600116156101000203166002900480601f0160208091040260200160405190810160405280929190818152602001828054600181600116156101000203166002900480156104af5780601f10610484576101008083540402835291602001916104af565b820191906000526020600020905b81548152906001019060200180831161049257829003601f168201915b5050505050905083565b6104c161102c565b60006002541180156104d557506000600354115b80156104e357506000600454115b6104ec57600080fd5b60006104f733610e77565b90506000811161050657600080fd5b600060056000858152602001908152602001600020905060008160020160029054906101000a900473ffffffffffffffffffffffffffffffffffffffff1690508573ffffffffffffffffffffffffffffffffffffffff168173ffffffffffffffffffffffffffffffffffffffff161461057e57600080fd5b60018260020160016101000a81548160ff021916908315150217905550816040518060a001604052908160008201548152602001600182018054600181600116156101000203166002900480601f01602080910402602001604051908101604052809291908181526020018280546001816001161561010002031660029004801561064a5780601f1061061f5761010080835404028352916020019161064a565b820191906000526020600020905b81548152906001019060200180831161062d57829003601f168201915b505050505081526020016002820160009054906101000a900460ff161515151581526020016002820160019054906101000a900460ff161515151581526020016002820160029054906101000a900473ffffffffffffffffffffffffffffffffffffffff1673ffffffffffffffffffffffffffffffffffffffff1673ffffffffffffffffffffffffffffffffffffffff1681525050935050505092915050565b6000809054906101000a900473ffffffffffffffffffffffffffffffffffffffff1673ffffffffffffffffffffffffffffffffffffffff163373ffffffffffffffffffffffffffffffffffffffff161461074357600080fd5b60026000815480929190600101919050555060405180606001604052808373ffffffffffffffffffffffffffffffffffffffff16815260200160025481526020018281525060066000600254815260200190815260200160002060008201518160000160006101000a81548173ffffffffffffffffffffffffffffffffffffffff021916908373ffffffffffffffffffffffffffffffffffffffff16021790555060208201518160010155604082015181600201908051906020019061080a929190611075565b509050505050565b60015481565b600060025411801561082c57506000600354115b801561083a57506000600454115b61084357600080fd5b600160008154809291906001019190505550600061086033610f38565b90508273ffffffffffffffffffffffffffffffffffffffff168173ffffffffffffffffffffffffffffffffffffffff1614806108db575073c0ffee254729296a45a3885639ac7e10f9d5497973ffffffffffffffffffffffffffffffffffffffff168173ffffffffffffffffffffffffffffffffffffffff16145b156108f05760006108eb57600080fd5b610a07565b60006001905060008090506040518060a001604052806001548152602001858152602001831515815260200182151581526020018673ffffffffffffffffffffffffffffffffffffffff16815250600560006001548152602001908152602001600020600082015181600001556020820151816001019080519060200190610979929190611075565b5060408201518160020160006101000a81548160ff02191690831515021790555060608201518160020160016101000a81548160ff02191690831515021790555060808201518160020160026101000a81548173ffffffffffffffffffffffffffffffffffffffff021916908373ffffffffffffffffffffffffffffffffffffffff16021790555090505050505b505050565b6000809054906101000a900473ffffffffffffffffffffffffffffffffffffffff1681565b60025481565b6005602052806000526040600020600091509050806000015490806001018054600181600116156101000203166002900480601f016020809104026020016040519081016040528092919081815260200182805460018160011615610100020316600290048015610ae95780601f10610abe57610100808354040283529160200191610ae9565b820191906000526020600020905b815481529060010190602001808311610acc57829003601f168201915b5050505050908060020160009054906101000a900460ff16908060020160019054906101000a900460ff16908060020160029054906101000a900473ffffffffffffffffffffffffffffffffffffffff16905085565b6000809054906101000a900473ffffffffffffffffffffffffffffffffffffffff1673ffffffffffffffffffffffffffffffffffffffff163373ffffffffffffffffffffffffffffffffffffffff1614610b9857600080fd5b60036000815480929190600101919050555060405180606001604052808373ffffffffffffffffffffffffffffffffffffffff16815260200160035481526020018281525060076000600354815260200190815260200160002060008201518160000160006101000a81548173ffffffffffffffffffffffffffffffffffffffff021916908373ffffffffffffffffffffffffffffffffffffffff160217905550602082015181600101556040820151816002019080519060200190610c5f929190611075565b509050505050565b60045481565b6000809054906101000a900473ffffffffffffffffffffffffffffffffffffffff1673ffffffffffffffffffffffffffffffffffffffff163373ffffffffffffffffffffffffffffffffffffffff1614610cc657600080fd5b60046000815480929190600101919050555060405180606001604052808373ffffffffffffffffffffffffffffffffffffffff16815260200160045481526020018281525060086000600454815260200190815260200160002060008201518160000160006101000a81548173ffffffffffffffffffffffffffffffffffffffff021916908373ffffffffffffffffffffffffffffffffffffffff160217905550602082015181600101556040820151816002019080519060200190610d8d929190611075565b509050505050565b60086020528060005260406000206000915090508060000160009054906101000a900473ffffffffffffffffffffffffffffffffffffffff1690806001015490806002018054600181600116156101000203166002900480601f016020809104026020016040519081016040528092919081815260200182805460018160011615610100020316600290048015610e6d5780601f10610e4257610100808354040283529160200191610e6d565b820191906000526020600020905b815481529060010190602001808311610e5057829003601f168201915b5050505050905083565b60008060045411610e8757600080fd5b6000600190505b6004548111610f2d578273ffffffffffffffffffffffffffffffffffffffff166008600083815260200190815260200160002060000160009054906101000a900473ffffffffffffffffffffffffffffffffffffffff1673ffffffffffffffffffffffffffffffffffffffff161415610f20576008600082815260200190815260200160002060010154915050610f33565b8080600101915050610e8e565b50600090505b919050565b60008060025411610f4857600080fd5b6000600190505b600254811161100e578273ffffffffffffffffffffffffffffffffffffffff166006600083815260200190815260200160002060000160009054906101000a900473ffffffffffffffffffffffffffffffffffffffff1673ffffffffffffffffffffffffffffffffffffffff161415611001576006600082815260200190815260200160002060000160009054906101000a900473ffffffffffffffffffffffffffffffffffffffff16915050611027565b8080600101915050610f4f565b5073c0ffee254729296a45a3885639ac7e10f9d5497990505b919050565b6040518060a001604052806000815260200160608152602001600015158152602001600015158152602001600073ffffffffffffffffffffffffffffffffffffffff1681525090565b828054600181600116156101000203166002900490600052602060002090601f016020900481019282601f106110b657805160ff19168380011785556110e4565b828001600101855582156110e4579182015b828111156110e35782518255916020019190600101906110c8565b5b5090506110f191906110f5565b5090565b61111791905b808211156111135760008160009055506001016110fb565b5090565b90565b600081359050611129816115a4565b92915050565b600082601f83011261114057600080fd5b813561115361114e826114b0565b611483565b9150808252602083016020830185838301111561116f57600080fd5b61117a838284611551565b50505092915050565b600081359050611192816115bb565b92915050565b600080604083850312156111ab57600080fd5b60006111b98582860161111a565b925050602083013567ffffffffffffffff8111156111d657600080fd5b6111e28582860161112f565b9150509250929050565b600080604083850312156111ff57600080fd5b600061120d8582860161111a565b925050602061121e85828601611183565b9150509250929050565b60006020828403121561123a57600080fd5b600061124884828501611183565b91505092915050565b61125a81611509565b82525050565b61126981611509565b82525050565b6112788161151b565b82525050565b6112878161151b565b82525050565b6000611298826114dc565b6112a281856114e7565b93506112b2818560208601611560565b6112bb81611593565b840191505092915050565b60006112d1826114dc565b6112db81856114f8565b93506112eb818560208601611560565b6112f481611593565b840191505092915050565b600060a0830160008301516113176000860182611375565b506020830151848203602086015261132f828261128d565b9150506040830151611344604086018261126f565b506060830151611357606086018261126f565b50608083015161136a6080860182611251565b508091505092915050565b61137e81611547565b82525050565b61138d81611547565b82525050565b60006020820190506113a86000830184611260565b92915050565b60006060820190506113c36000830186611260565b6113d06020830185611384565b81810360408301526113e281846112c6565b9050949350505050565b6000602082019050818103600083015261140681846112ff565b905092915050565b60006020820190506114236000830184611384565b92915050565b600060a08201905061143e6000830188611384565b818103602083015261145081876112c6565b905061145f604083018661127e565b61146c606083018561127e565b6114796080830184611260565b9695505050505050565b6000604051905081810181811067ffffffffffffffff821117156114a657600080fd5b8060405250919050565b600067ffffffffffffffff8211156114c757600080fd5b601f19601f8301169050602081019050919050565b600081519050919050565b600082825260208201905092915050565b600082825260208201905092915050565b600061151482611527565b9050919050565b60008115159050919050565b600073ffffffffffffffffffffffffffffffffffffffff82169050919050565b6000819050919050565b82818337600083830152505050565b60005b8381101561157e578082015181840152602081019050611563565b8381111561158d576000848401525b50505050565b6000601f19601f8301169050919050565b6115ad81611509565b81146115b857600080fd5b50565b6115c481611547565b81146115cf57600080fd5b5056fea365627a7a72315820a27b02e75f150a9cdbd3f610e04f61aee2a8f0c89601ec4da3c7d877eebd5d9a6c6578706572696d656e74616cf564736f6c63430005100040",
  "source": "// SPDX-License-Identifier: MIT\r\npragma experimental ABIEncoderV2;\r\npragma solidity >=0.4.22 <0.9.0;\r\n\r\ncontract IVACT {\r\n   \r\n    address public Owner;\r\n\r\n    //note this constructor will be called when smart contract will be deployed on blockchain\r\n    constructor() public {\r\n        Owner = msg.sender;\r\n    }\r\n\r\n    //modifier to make sure only the owner is using the function\r\n    modifier onlyByOwner() {\r\n        require(msg.sender == Owner);\r\n        _;\r\n    }\r\n\r\n    \r\n    \r\n    // Contract between issuer and the contract holder will we be counted here. how much contract have been issued.\r\n    //Contarct count\r\n    uint256 public ContractCtr = 0;\r\n    //Issuer count\r\n    uint256 public IssuerCtr =0;\r\n    // Holder count\r\n    uint256 public HolderCtr = 0;\r\n    // Verifier count\r\n    uint256 public VerifierCtr=0;\r\n    //Wheat count \r\n    \r\n\r\n    // to store information about the Contracts\r\n    struct Contrct{\r\n        uint256 id; //unique contract id\r\n        // string name; //name of the contrct\r\n        string description;\r\n        bool is_issured ;\r\n        bool is_verfied ;\r\n        address holder_addr;\r\n        \r\n    }\r\n  \r\n\r\n    //To store all the contrcts on blockchain mapping name ContrctStock\r\n    mapping(uint256 => Contrct) public ContrctStock;\r\n\r\n\r\n    //To store information about  material supplier => ContractIssuer\r\n    struct ContractIssuer {\r\n        address addr;\r\n        uint256 id; //supplier id\r\n        string name; //Name of the  material supplier\r\n        \r\n    }\r\n\r\n    //To store all the  material suppliers (changed to ContractIssuer mapping name CI) on the blockchain\r\n    mapping(uint256 => ContractIssuer) public CI;\r\n\r\n    struct ContractHolder{\r\n        address addr;\r\n        uint256 id;\r\n        string name;\r\n        \r\n        // bool is_verified; // new variable to track whether the holder is verified\r\n    }\r\n\r\n    mapping(uint256 => ContractHolder) public CH;\r\n\r\n    //To store information about manufacturer\r\n    struct ContractVerifier{\r\n        address addr;\r\n        uint256 id; //manufacturer id\r\n        string name; //Name of the manufacturer\r\n        \r\n        \r\n    }\r\n\r\n    //To store all the manufacturers on the blockchain\r\n    mapping(uint256 => ContractVerifier) public CV;\r\n\r\n  \r\n   \r\n    function issuer(\r\n        address _address,\r\n        string memory _name\r\n        \r\n    ) public onlyByOwner() {\r\n        IssuerCtr++;\r\n        CI[IssuerCtr] = ContractIssuer(_address, IssuerCtr, _name);\r\n    }\r\n\r\n    //Only contract owner can add a new holder\r\n\r\n    function holder(address _address,string memory _name ) public onlyByOwner() {\r\n        HolderCtr++;\r\n         CH[HolderCtr] = ContractHolder(_address, HolderCtr, _name); // fasle commented initialize is_verified to false\r\n    }\r\n\r\n\r\n    //Only contract owner can add a new verifier\r\n    function verifier(\r\n        address _address,\r\n        string memory _name\r\n        \r\n    ) public onlyByOwner() {\r\n        VerifierCtr++;\r\n        CV[VerifierCtr] = ContractVerifier(_address, VerifierCtr, _name);\r\n    }\r\n    \r\n\r\n\r\n    //To check if issuer is available in the blockchain\r\n    //find issuer\r\n    function findIssuer(address _address) private view returns (address) {\r\n        require(IssuerCtr > 0);\r\n        for (uint256 i = 1; i <= IssuerCtr; i++) {\r\n            if (CI[i].addr == _address) return CI[i].addr;\r\n        }\r\n        return 0xc0ffee254729296a45a3885639AC7E10F9d54979;\r\n    }\r\n\r\n    //To check if holder is available in the blockchain\r\n    function findHolder(address _address) private view returns (uint256) {\r\n        require(HolderCtr > 0);\r\n        for (uint256 i = 1; i <= HolderCtr; i++) {\r\n            if (CH[i].addr == _address) return CV[i].id;\r\n        }\r\n        return 0;\r\n    }\r\n\r\n    //To check if verifier is available in the blockchain\r\n    function findVerifier(address _address) private view returns (uint256) {\r\n        require( VerifierCtr > 0);\r\n        for (uint256 i = 1; i <=  VerifierCtr; i++) {\r\n            if (CV[i].addr == _address) return CV[i].id;\r\n        }\r\n        return 0;\r\n    }\r\n    \r\n    \r\n\r\n    //to verify the issued contract;\r\n    function contractVerify( address holderAddress,uint256 _contractID)\r\n        public\r\n        \r\n        returns (Contrct memory)\r\n      \r\n    {\r\n        require((IssuerCtr > 0) && (HolderCtr  > 0) && (VerifierCtr > 0));\r\n        \r\n        \r\n         uint256 _id = findVerifier(msg.sender);\r\n         require(_id > 0);\r\n         \r\n         // check for contratc id than find perticuler holder address\r\n        Contrct storage contractObj = ContrctStock[_contractID];\r\n        address storedHolderAddress = contractObj.holder_addr;\r\n        require(storedHolderAddress == holderAddress);\r\n        contractObj.is_verfied=true;\r\n        return contractObj;\r\n    }\r\n\r\n\r\n//     function checkHolderAddress(uint256 contractId, address holderAddress) public view returns(bool) {\r\n//     Contrct storage contractObj = ContrctStock[contractId];\r\n//     address storedHolderAddress = contractObj.holder_addr;\r\n//     return (storedHolderAddress == holderAddress);\r\n// }\r\n\r\n\r\n    //add new contrct on blockchain\r\n\r\nfunction addContrct( address _address, string memory _description)\r\n        public\r\n       \r\n    {\r\n        require((IssuerCtr > 0) && (HolderCtr  > 0) && (VerifierCtr > 0));\r\n        ContractCtr++;\r\n        \r\n         address _id = findIssuer(msg.sender);\r\n        //  require(_id > 0);\r\n        if(_id==_address || _id==0xc0ffee254729296a45a3885639AC7E10F9d54979){\r\n            require(false);\r\n        }else{\r\n         bool _issue=true;\r\n         bool hold=false;\r\n         ContrctStock[ContractCtr] = Contrct(\r\n            ContractCtr,\r\n            _description,\r\n            _issue,\r\n            hold,\r\n            _address\r\n            );\r\n        }\r\n         \r\n         \r\n    }\r\n\r\n\r\n     \r\n    \r\n}\r\n",
  "sourcePath": "C:\\Users\\Lenovo T470s\\Downloads\\data\\asad_fyo\\code\\contracts\\IVACT.sol",
  "compiler": {
    "name": "solc",
    "version": "0.5.16+commit.9c3226ce.Emscripten.clang"
  },
  "schemaVersion": "3.4.7",
  "updatedAt": "2023-03-22T09:35:04.944Z",
  "networkType": "ethereum",
  "devdoc": {
    "methods": {}
  },
  "userdoc": {
    "methods": {}
  }
}